S00C00006D61696E2E7372656373
S113000010E4FF1F1B0C0000190C0000190C000069
S113001000000000000000000000000000000000DC
S1130020000000000000000000000000190C0000A7
S11300300000000000000000190C0000190C000072
S11300401B0C00001B0C00001B0C00001B0C000010
S1130050000000001B0C00001B0C00001B0C000027
S11300601B0C00001B0C00001B0C00001B0C0000F0
S11300701B0C00001B0C00001B0C00001B0C0000E0
S11300801B0C00001B0C00001B0C00001B0C0000D0
S11300901B0C00001B0C00001B0C000000000000E7
S11300A01B0C00001B0C00001B0C00001B0C0000B0
S11300B01B0C0000000000001B0C0000990A00004B
S1130400FFFFFFFFFFFFFFFFFFFFFFFFFEFFFFFFF9
S113041010B5264B0022882149015A5024481C5803
S1130420244921431950244B1868802109020143AF
S1130430196019688020814319602049CA610A62E1
S11304408A62CA624A658A65CA651D494A648A64C1
S11304501C490A601C490A614A611C4919605A60B6
S11304609A601B4919611B495961C02109039961AB
S11304701949D9611A625A629A62DA621749196390
S11304805A639A63DA631A645A6411219964DA64C8
S11304901A65113159659A65DA651968104A11406F
S11304A019601A6802431A6010BDC0460070044007
S11304B038100000003C08000030054000A0044053
S11304C000B0044000C0044000D004406384B00085
S11304D0800D0E006001300000011000000088440F
S11304E0FF7FFFFF10B50F4B4522FF219954143AAB
S11304F07739995422390A3A9954002228241A55F2
S11305002D34195520395A540F2806D9054B002289
S11305102A215A5401315A5410BD423900F004F8CA
S1130520FAE7C0460030054010B5042906D80F2864
S113053000D906E18000854B1B589F460120FFF738
S1130540D1FF10BD4B1E5B00814AD35C81488446B9
S11305506344BB20187049000139535C6344EE22A4
S11305601A70EEE74B1E5B00794AD35C79488446E7
S113057063440020187049000139535C63446622C7
S11305801A70DEE74B1E5B00714AD35C71488446E7
S113059063447720187049000139535C6344CC22CA
S11305A01A70CEE74B1E5B00694AD35C69488446E7
S11305B063445520187049000139535C6344EE22AA
S11305C01A70BEE74B1E5B00614AD35C61488446E7
S11305D06344CC20187049000139535C634466229B
S11305E01A70AEE74B1E5B00594AD35C59488446E7
S11305F06344DD20187049000139535C6344AA2226
S11306001A709EE74B1E5B00514AD35C51488446E6
S11306106344FF20187049000139535C6344AA22E3
S11306201A708EE74B1E5B00494AD35C49488446E6
S113063063440020187049000139535C6344EE227E
S11306401A707EE74B1E5B00414AD35C41488446E6
S11306506344FF20187049000139535C6344EE225F
S11306601A706EE74B1E5B00394AD35C39488446E6
S11306706344CC20187049000139535C6344EE2272
S11306801A705EE74B1E5B003148C35C314A9446E6
S11306906344EE221A7049000139435C63441A70C2
S11306A04FE74B1E5B002A4AD35C2A4884466344C6
S11306B0FF20187049000139535C634422221A70E8
S11306C03FE74B1E5B00224AD35C224884466344C6
S11306D0BB20187049000139535C634488221A70A6
S11306E02FE74B1E5B001A4AD35C1A4884466344C6
S11306F07720187049000139535C634466221A70EC
S11307001FE74B1E5B00124AD35C124884466344C5
S1130710FF20187049000139535C634488221A7021
S11307200FE74B1E5B000A4AD35C0A4884466344C5
S1130730EE20187049000139535C634488221A7012
S1130740FFE60120FFF7CEFEFBE6C046480F00009F
S1130750880F00002030054070B50400000B012113
S1130760FFF7E2FE200A0F2528400221FFF7DCFEF6
S1130770201128400321FFF7D7FE20002840042140
S1130780FFF7D2FE70BD70B50400214B98423AD8F1
S1130790FA21890000F062FA85B2E8B20121FFF77C
S11307A0C3FEAB055B1B9B015B195B005B19D800A7
S11307B02018642100F0DCFAC0B20221FFF7B4FE75
S11307C06421200000F04AFA80B243061B1A9B0001
S11307D01B18DB001B1A980020180A2100F0C8FA25
S11307E0C0B20321FFF7A0FE0A21200000F036FA70
S11307F043011B1A9B00181A43001C19E0B2042180
S1130800FFF792FE70BD1020FFF76CFEFAE7C046BA
S11308100F27000070B505000C0063238342894153
S11308204942A3429B415B420B4325D10A2100F07C
S113083015FAC0B20121FFF777FE0A21280000F063
S113084093FAC8B20221FFF76FFE0A21200000F0DC
S113085005FAC0B20321FFF767FE0A21200000F069
S113086083FAC8B20421FFF75FFE05492B228B5C93
S1130870112003438B5470BD1020FFF733FEFAE7B9
S113088000300540024B03221A7000225A70704750
S11308900040064082B00023019302E0019B013333
S11308A00193019A024B9A42F8DD02B07047C046A8
S11308B03F420F000A4B88225201002199500949F6
S11308C058588022120102435A50074AD168074BF4
S11308D00B43D360064A536908218B435361704725
S11308E0007004403810000000B0044002010A0007
S11308F080F00F400A4B8822520100219950094987
S113090058588022120102435A50074A116B074B70
S11309100B431363064A536906490B4053617047FE
S1130920007004403810000000B0044002010A00C6
S113093080F00F40FFEFFFFF034B1B6908201840B6
S1130940434258417047C04680F00F40034B18693A
S113095080235B01184043425841704780F00F40A8
S11309600C4B88225201002199500B49585880227F
S1130970120102435A50094BD96881225200114393
S1130980D960196B0A431A63054A536905490B4038
S113099053617047007004403810000000B00440F8
S11309A080F00F40F7EFFFFF0A4B8822520100212D
S11309B0995009495858013AFF3A02435A50074B93
S11309C0802252005A61064B5A6920210A435A6117
S11309D059607047007004403810000000C00440A3
S11309E0C0F00F40014B2022DA607047C0F00F4086
S11309F00B4B88225201002199500A4958588022F1
S1130A00920102435A50084B802252005A67074B06
S1130A105A69802189050A435A6159607047C04662
S1130A20007004403810000000D0044000F10F4072
S1130A30024B80229205DA607047C04600F10F40F5
S1130A4010B50F4B88225201002199500D49585876
S1130A50C022920102435A5080235B000A4A536128
S1130A600A4A53670A4A5369202423435361094BB2
S1130A70596980208005014359615460586010BD54
S1130A80007004403810000000C0044000D004404E
S1130A90C0F00F4000F10F4010B5124B1B68002B43
S1130AA00BD0012B16D0104BD9688022520411436D
S1130AB0D960196B0A431A6310BDFFF73DFF002884
S1130AC0F1D00023094A1360094A1360054B01223F
S1130AD01A60E8E7FFF73AFF0028E4D0014B002250
S1130AE01A60E0E700E0FF1F00B0044004E0FF1FCD
S1130AF008E0FF1F094B002245215A5414395A5467
S1130B000A395A5401315A542D315A540F395A540E
S1130B101C395A5401315A547047C04600300540BC
S1130B200E4B0F4958588022520402435A500D4923
S1130B305858C022920402435A500B4B00221A60A8
S1130B401A6806210A431A60084A9A601A687A31B8
S1130B500A431A6008221A607047C04600700440B5
S1130B603C1000000410000000800340A086000038
S1130B7010B5244CC7229200A3581B021B0AA35091
S1130B80FFF780FEFFF744FCFFF794FEFFF7B2FE89
S1130B90FFF756FFFFF7C4FF00231B4A13601B4AED
S1130BA013601B4A136000210020FFF733FE8023EB
S1130BB01B06236004E0174A136880210B4313606B
S1130BC0134B1978114B1878FFF724FE114B1B684F
S1130BD01B06FBD50C4B1B68012BECD10B4A13688D
S1130BE0013313603B2BE6DD130000221A60084A30
S1130BF0136801331360622BDDDD034B00221A609E
S1130C00D9E7C04600E100E000E0FF1F04E0FF1F59
S1130C1008E0FF1F00800340FEE710B50A4B0B4AB3
S1130C2003E0116819600433043209498B42F8D394
S1130C30084B02E000221A600433074A9342F9D3B6
S1130C40FFF796FF10BDC04600E0FF1F980F00009D
S1130C5000E0FF1F00E0FF1F0CE0FF1F002243081D
S1130C608B4274D303098B425FD3030A8B4244D370
S1130C70030B8B4228D3030C8B420DD3FF220902B2
S1130C8012BA030C8B4202D31212090265D0030B71
S1130C908B4219D300E0090AC30B8B4201D3CB0367
S1130CA0C01A5241830B8B4201D38B03C01A5241A9
S1130CB0430B8B4201D34B03C01A5241030B8B42AB
S1130CC001D30B03C01A5241C30A8B4201D3CB0296
S1130CD0C01A5241830A8B4201D38B02C01A52417B
S1130CE0430A8B4201D34B02C01A5241030A8B427E
S1130CF001D30B02C01A5241CDD2C3098B4201D396
S1130D00CB01C01A524183098B4201D38B01C01A13
S1130D10524143098B4201D34B01C01A524103098A
S1130D208B4201D30B01C01A5241C3088B4201D339
S1130D30CB00C01A524183088B4201D38B00C01AE6
S1130D40524143088B4201D34B00C01A5241411A0D
S1130D5000D20146524110467047FFE701B500201A
S1130D6000F0F0F802BDC0460029F7D076E77047DE
S1130D7003460B437FD4002243088B4274D30309F8
S1130D808B425FD3030A8B4244D3030B8B4228D399
S1130D90030C8B420DD3FF22090212BA030C8B42BF
S1130DA002D31212090265D0030B8B4219D300E05F
S1130DB0090AC30B8B4201D3CB03C01A5241830BE4
S1130DC08B4201D38B03C01A5241430B8B4201D394
S1130DD04B03C01A5241030B8B4201D30B03C01ABD
S1130DE05241C30A8B4201D3CB02C01A5241830A37
S1130DF08B4201D38B02C01A5241430A8B4201D366
S1130E004B02C01A5241030A8B4201D30B02C01A8F
S1130E105241CDD2C3098B4201D3CB01C01A5241F6
S1130E2083098B4201D38B01C01A524143098B427F
S1130E3001D34B01C01A524103098B4201D30B0168
S1130E40C01A5241C3088B4201D3CB00C01A52418D
S1130E5083088B4201D38B00C01A524143088B4252
S1130E6001D34B00C01A5241411A00D201465241EB
S1130E70104670475DE0CA0F00D04942031000D30A
S1130E804042534000229C4603098B422DD3030A5F
S1130E908B4212D3FC22890112BA030A8B420CD36F
S1130EA0890192118B4208D3890192118B4204D398
S1130EB089013AD0921100E08909C3098B4201D318
S1130EC0CB01C01A524183098B4201D38B01C01A52
S1130ED0524143098B4201D34B01C01A52410309C9
S1130EE08B4201D30B01C01A5241C3088B4201D378
S1130EF0CB00C01A524183088B4201D38B00C01A25
S1130F005241D9D243088B4201D34B00C01A5241FB
S1130F10411A00D20146634652415B10104601D388
S1130F204042002B00D54942704763465B1000D312
S1130F30404201B5002000F005F802BD0029F8D0B8
S1130F4016E770477047C04644050000640500007A
S1130F5084050000A4050000C4050000E4050000A9
S1130F600406000024060000440600006406000095
S1130F7084060000A2060000C2060000E20600008B
S1130F8002070000220700002511070835260A0B76
S1070F90F8B5C046A6
S1070F94F8B5C046A2
S9030410E8
