S00C00006D61696E2E7372656373
S113000028E4FF1FA9410000294200002942000002
S113001000000000000000000000000000000000DC
S11300200000000000000000000000002942000061
S11300300000000000000000294200006D430000A1
S1130040A9410000A9410000A9410000A941000004
S113005000000000A9410000A9410000A9410000DE
S1130060A9410000A9410000A9410000A9410000E4
S1130070A9410000A9410000A9410000A9410000D4
S1130080A9410000A9410000A9410000A9410000C4
S1130090A9410000A9410000A9410000000000009E
S11300A0A9410000A9410000A9410000A9410000A4
S11300B0A941000000000000A9410000A94100007E
S1130400FFFFFFFFFFFFFFFFFFFFFFFFFEFFFFFFF9
S113041080B584B000AF78607B681B0C084A9446B2
S11304206344FB60FB6819687B681B041B0C012296
S11304309A40FB680A431A60C046BD4604B080BDBA
S11304400070044080B584B000AFF860B960FB1D53
S11304501A70FB68BA689200D358094A1A40FB1D07
S11304601B781902E023DB000B401A431100FB68E0
S1130470BA689200D150C046BD4604B080BDC046A3
S1130480FFF8FFFF80B500AF00F003F8C046BD469B
S113049080BD80B500AF064B1800FFF7B9FF054BD0
S11304A001221D211800FFF7CDFFC046BD4680BDC7
S11304B00D00381000D0044090B587B000AFF8604C
S11304C07A603B600B243B190A1C1A70FA681020EE
S11304D03B181A603B183A1912781A713A6879680D
S11304E03818002300F074F900231800BD4607B043
S11304F090BD80B500AF00F0D5F9C046BD4680BDC3
S113050080B500AF00F0F8F900231800BD4680BDA7
S113051090B583B000AF786039607B68002B08D158
S1130520094C0A4A4023FF3319000948230001F00B
S113053063F83A687B681100180000F00BF80300B8
S11305401800BD4603B090BDFC47000028480000D9
S11305500848000080B584B000AF786039600F238C
S1130560FB1800221A703B68002B14D07B68002B08
S113057011D00F217B1801221A707B181B78002BD5
S113058009D039687B680122180000F0DBF9031EEA
S113059001D000233B603B681800BD4604B080BD19
S11305A090B585B000AF786039607B68002B07D1C7
S11305B0264C274AB22359002648230001F01CF890
S11305C00023FB600023FB6024E0FB687A68D318F7
S11305D0180000F069F8031E02D001235B4230E0EA
S11305E0FB687A68D3181B780D2B05D0FB687A68F2
S11305F0D3181B780A2B0AD1FB68002B0FD1FB6898
S11306007A68D31800221A7001235B42FB60FB68EE
S11306100133FB60FB683A689A42D6D800E0C046D2
S1130620FB683A689A4205D1FB687A68D3180022BD
S11306301A7005E0FB6801337A68D31800221A7037
S1130640FB681800BD4605B090BDC046FC470000DD
S1130650344800000848000090B585B000AF7860C9
S11306607B68002B07D10D4C0D4ACB2359000D4854
S1130670230000F0C1FF0023FB607B68180000F03A
S113068013F8031E02D10123FB6002E001235B4245
S1130690FB60FB681800BD4605B090BD1C48000017
S11306A0444800000848000080B582B000AF78607C
S11306B07B6800220121180000F044F9031E01D0D8
S11306C0012300E000231800BD4602B080BDC046EF
S11306D080B582B000AF78600A00FB1C1A70FB1C66
S11306E01B78002B08D07B68DB78DBB2082213432D
S11306F0DAB27B68DA7007E07B68DB78DBB2082269
S11307009343DAB27B68DA70C046BD4602B080BD5E
S113071080B582B000AF78600A00FB1C1A70FB1C25
S11307201B78002B08D07B68DB78DBB204221343F0
S1130730DAB27B68DA7007E07B68DB78DBB204222C
S11307409343DAB27B68DA70C046BD4602B080BD1E
S113075080B582B000AF78600A00FB1C1A70FB1CE5
S11307601B78002B08D07B68DB78DBB208221343AC
S1130770DAB27B68DA7007E07B68DB78DBB20822E8
S11307809343DAB27B68DA70C046BD4602B080BDDE
S113079080B582B000AF78600A00FB1C1A70FB1CA5
S11307A01B78002B08D07B68DB78DBB20422134370
S11307B0DAB27B68DA7007E07B68DB78DBB20422AC
S11307C09343DAB27B68DA70C046BD4602B080BD9E
S11307D090B58BB000AFF860B9607A603B60FB689D
S11307E0002B05D12B4B2C4A2C48FF2100F004FF91
S11307F0FB681A792A4B1A71FB681A68284B1A602D
S1130800274B1B79032B22D0062B02D0012B00D0BF
S11308103BE01C210C007B18180001F0BDFA2100FC
S11308207B18BA681A601E4B1B687A68791818001E
S113083001F08AF91A4B1B6801211800FFF748FFE1
S1130840174B1B6801211800FFF762FF1DE0102100
S11308500C007B18180002F009FD21007B18BA680F
S11308601A600F4B1B687A687918180002F0A0FB15
S11308700B4B1B6801211800FFF76AFF084B1B682C
S113088001211800FFF784FFC046C046BD460BB0E7
S113089090BDC046584800007848000064480000F5
S11308A004E0FF1F80B500AF124B1B79002B01D170
S11308B000231BE00F4B1B79032B09D0062B01D01F
S11308C0012B0BD10B4B1B68180001F045FA09E012
S11308D0084B1B68180002F0AFFC03E0054B002234
S11308E01A71C046034B00221A7100231800BD463A
S11308F080BDC04604E0FF1F80B500AF104B1B79DC
S1130900012B02D0032B0BD015E0C0460C4B1B6807
S1130910180001F085FB020040231340F6D00AE0E2
S1130920C046074B1B68180002F024FE0200402357
S11309301340F6D0C04600231800BD4680BDC04613
S113094004E0FF1F80B586B000AFF860B960FB1DFE
S11309501A7000237B611E4B1B79032B19D0062BC5
S113096001D0012B2BD1FB1D1B78002B07D0184B7A
S11309701B68BA68F968180001F0A2FB22E0144B66
S11309801B68BA68F968180001F0E2FB03007B6198
S113099018E0FB1D1B78002B07D00D4B1B68BA68B1
S11309A0F968180002F044FE0CE0094B1B68BA68B1
S11309B0F968180002F06AFE03007B6102E001237B
S11309C07B61C0467B691800BD4606B080BDC04649
S11309D004E0FF1F80B584B000AF78600F23FB18DC
S11309E000221A707B681A680E23FB1812781A709A
S11309F010E00F217B181A787B1801321A707B687B
S1130A001B685A1C7B681A607B681A680E23FB18E3
S1130A1012781A700E23FB181B78202BE9D00E23B2
S1130A20FB181B78092BE4D00E23FB181B780A2B28
S1130A30DFD00E23FB181B780D2BDAD00E23FB1806
S1130A401B780B2BD5D00E23FB181B780C2BD0D086
S1130A500F23FB181B781800BD4604B080BD80B579
S1130A608CB000AFF860B9607A603B600023FB6132
S1130A70FB68BB61BB695A1CBA6100221A707B68AF
S1130A80002B35D0BB681B68FB62FB6A002B2BD1A3
S1130A90BB6930221A70FB690133FB61FB6964E0B6
S1130AA03968F86A03F03EFD03003B613B693A682C
S1130AB05343FA6AD31ABB62BB6A002B06DABB6AD9
S1130AC03B623B6A3022D31ABB6202E0BB6A30331A
S1130AD0BB623B69FB62BB695A1CBA61BA6AD2B297
S1130AE01A70FB690133FB61FB6A002BD8D13BE030
S1130AF0BB681B687B627B6A002B32D1BB693022E6
S1130B001A70FB690133FB61FB692EE03B68190035
S1130B10786A03F07DFC03007B613B687A69534388
S1130B207A6AD31A3B623B6A092B03D83B6A303397
S1130B303B620BE03823FB181B78002B01D04123C8
S1130B4000E061233A6A9B180A3B3B627B697B6243
S1130B50BB695A1CBA613A6AD2B21A70FB69013392
S1130B60FB617B6A002BD1D1FB691800BD460CB038
S1130B7080BD90B59DB002AFF860B9607A603B600B
S1130B8000233B660023FB650023BB614A23FB185B
S1130B9000221A7000233B61FB687B666FE17B6C6B
S1130BA0252B08D07B6CDAB21823F91878683C68D6
S1130BB00123A04760E14B23FB1801221A70002394
S1130BC07B650023BB651BE07B6E01337B667B6E1C
S1130BD01B787B647B6C2F2B0DDD7B6C392B0ADC43
S1130BE07A6D13009B009B185B001A007B6CD31872
S1130BF0303B7B6504E07B6E013B7B660123BB6578
S1130C00BB6D002BE0D006233B657B6E01337B6616
S1130C107B6E1B782E2B24D100233B650023BB6500
S1130C201BE07B6E01337B667B6E1B787B647B6C85
S1130C302F2B0DDD7B6C392B0ADC3A6D13009B00E6
S1130C409B185B001A007B6CD318303B3B6504E0B7
S1130C507B6E013B7B660123BB65BB6D002BE0D043
S1130C6002E07B6E013B7B667B6E01337B667B6EB1
S1130C701B787B647B6C642B1BD07B6C692B18D03A
S1130C807B6C662B15D07B6C462B12D07B6C782B3F
S1130C900FD07B6C582B0CD07B6C6F2B09D07B6CEA
S1130CA0622B06D07B6C702B03D07B6C752B00D031
S1130CB09EE07B6C642B02D07B6C692B16D1BB68E5
S1130CC01A1DBA601B687B611423F9181C24381997
S1130CD04B23FB181B7800930A230122FFF7BFFE66
S1130CE00300FB653A19FB6DD3183B667B6C582BEC
S1130CF002D07B6C782B1DD17B6C782B03D14B23DA
S1130D00FB1800221A70BB681A1DBA601B683B618D
S1130D101023F9181C2438194B23FB181B78009353
S1130D2010230022FFF79BFE0300FB653A19FB6DBD
S1130D30D3183B667B6C6F2B08D07B6C622B05D081
S1130D407B6C702B02D07B6C752B35D1BB681A1D64
S1130D50BA601B683B617B6C6F2B04D14A23FB1880
S1130D6008221A7013E07B6C622B04D14A23FB180F
S1130D7002221A700BE07B6C702B04D14A23FB18FF
S1130D8010221A7003E04A23FB180A221A704A231D
S1130D90FB181A781023F9181C2438194B23FB1854
S1130DA01B78009313000022FFF759FE0300FB6534
S1130DB03A19FB6DD3183B66FB6D7A6DD31A182272
S1130DC0B91878683C682022A0473B6E002B53D0AA
S1130DD009E03B6E5A1E3A661A781823F9187868A7
S1130DE03C680123A0473B6E1B78002BF1D143E004
S1130DF07B6C632B0ED1BB681A1DBA601B68DBB217
S1130E003B643B6CDAB21823F91878683C68012318
S1130E10A04731E07B6C732B26D1BB681A1DBA60E6
S1130E201B68FB64FB6C002B26D0FB6C180003F0E2
S1130E30B3FC0300FB65FB6D7A6DD31A1822B91855
S1130E4078683C682022A04709E0FB6C5A1CFA64CD
S1130E501A781823F91878683C680123A047FB6CBA
S1130E601B78002BF1D107E07B6CDAB21823F91858
S1130E7078683C680123A0477B6E01337B667B6EF8
S1130E801B787B647B6C002B00D088E6BB69180060
S1130E90BD461BB090BD80B58EB000AFF860B960A0
S1130EA07A60BB687B610023FB6200237B620023C2
S1130EB03B62FB683B613B691B78002B00D060E21E
S1130EC001235B4269E21423FB181800FFF782FD3B
S1130ED0031E09D01023FB181800FFF77BFD020046
S1130EE03B6A9B183B624CE27B691B78252B08D13B
S1130EF07B691B78252B18D17B6901331B78252B43
S1130F0013D17B6901337B613B691A787B691B7858
S1130F109A4200D03FE23B6A01333B623B690133B2
S1130F203B617B6901337B612BE27B6901337B612C
S1130F300023FB620023BB623723FB1800221A70D4
S1130F408DE07B691B78303B482B00D985E09A0003
S1130F50CE4BD3181B689F46BB6A002B01D07B6A1B
S1130F601BE2BA6A13009B009B185B001A007B69A2
S1130F701B78D318303BBB627B6901337B617B698F
S1130F801B782F2B03D97B691B78392BE9D937229E
S1130F90BB18BA1812781A7061E03723FB180A22BA
S1130FA01A70FB6A802292011343FB62FB6A2022BF
S1130FB01343FB627B6901337B6150E03723FB18E9
S1130FC00A221A70FB6A20221343FB627B690133F5
S1130FD07B6144E03723FB1808221A70FB6A202245
S1130FE01343FB627B6901337B6138E03723FB18D1
S1130FF010221A70FB6A20221343FB627B690133BF
S11310007B612CE03723FB1800221A70FB6A202234
S11310101343FB627B6901337B6120E0FB6A04229A
S11310201343FB62BB6A002B01D10123BB627B69C2
S113103001337B613722BB18BA1812781A700EE09C
S1131040FB6A08221343FB627B6901337B6137220D
S1131050BB18BA1812781A7001E07B6A9DE17B69AB
S11310601B78002B04D0FB6A7C22134000D168E774
S1131070FB6A7C22134001D17B6A8EE1BB6A002BA0
S113108001D16323BB62FB6A7C221340082B37D057
S1131090202B00D18AE0042B00D070E13B69BB61B6
S11310A07B681A1D7A601B683B6312E0FB6A0222AC
S11310B0134008D13A69531C3B613B6B591C39639B
S11310C012781A7002E03B6901333B613B6A0133D9
S11310D03B62BB6A5A1EBA62002B03D03B691B7881
S11310E0002BE3D1FB6A0222134000D049E13B69A3
S11310F0BA699A4200D144E17B6A01337B6240E1E0
S11311001023FB181800FFF765FC02003B6A9B18CC
S11311103B623B69BB617B681A1D7A601B683B6359
S113112012E0FB6A0222134003D03B6901333B61A6
S113113007E03A69531C3B613B6B591C39631278D5
S11311401A703B6A01333B62BB6A5A1EBA62002BB7
S11311501BD03B691B78002B17D03B691B78202BD5
S113116013D03B691B78092B0FD03B691B780A2BE2
S11311700BD03B691B780D2B07D03B691B780B2BDD
S113118003D03B691B780C2BCBD1FB6A02221340A2
S113119000D0F6E03B69BA699A4200D1F1E03B6BBA
S11311A000221A707B6A01337B62EAE01023FB1889
S11311B01800FFF70FFC02003B6A9B183B623B6977
S11311C0BB610023FB613723FB181B78002B04D081
S11311D03723FB181B78102B1DD1BB691B78302BD0
S11311E019D1BB6901331B78782B04D0BB69013357
S11311F01B78582B0FD13723FB1810221A70BB6AA7
S1131200002B08D03B6902333B613B6A02333B62EB
S1131210BB6A023BBB623723FB181B78002B0CD143
S1131220BB691B78302B04D13723FB1808221A70B2
S113123003E03723FB180A221A703623FB18012215
S11312401A703B691B782B2B10D02D2B00D01BE080
S11312503623FB18FF221A703B6A01333B623B6959
S113126001333B61BB6A013BBB620DE03623FB18D3
S113127001221A703B6A01333B623B6901333B61D3
S1131280BB6A013BBB62C0464DE0C04680480000DB
S11312903B691B78392B0AD83B691B782F2B06D95D
S11312A03B691A783523FB18303A1A7023E03B69FE
S11312B01B78662B0AD83B691B78602B06D93B69DF
S11312C01A783523FB18573A1A7014E03B691B78D7
S11312D0462B0AD83B691B78402B06D93B691A7800
S11312E03523FB18373A1A7005E03523FB183722EB
S11312F0BA1812781A703523FA183723FB181278A3
S11313001B789A4219D23723FB181B78FA695A437F
S11313103523FB181B78D318FB613B6901333B6110
S11313203B6A01333B623B691B78002B06D0BB6AE6
S11313305A1EBA62002BABD100E0C0463623FB181C
S113134000229A56FB695343FB61FB6A0222134055
S113135017D1FA6A80239B01134006D07B681A1DBB
S11313607A601B68FA691A6005E07B681A1D7A6066
S11313701B68FA691A607B6A01337B6201E07B6A4D
S11313800BE07B691B78002B06D03B691B78002B94
S113139000D098E500E0C0467B6A1800BD460EB058
S11313A080BDC04690B585B000AFF860B9603B60C1
S11313B0FB1D1A70FB1D1B78002B05D1094B0A4A33
S11313C00A48692100F018F93C68BA68FB1D1978CD
S11313D0F8682300FFF770F803001800BD4605B055
S11313E090BDC046A4490000F0490000D049000067
S11313F080B500AFFFF77DF800231800BD4680BD1F
S113140080B500AFFFF77CF803001800BD4680BD2F
S11314100FB4F0B5C64600B5A4B000AF00238C24C9
S11314203A191360002388257A1913603B1D1800AC
S113143080231A00002103F061F99C2308229446BA
S113144008229046B844C444634484217A18136043
S1131450134B3A1D7918096898200826B4460826C3
S1131460B046B844C44460440068FFF782FB0300FC
S11314703A1913603B191A683B1D11001800FFF755
S113148047F803007A1913607B191B681800BD46DE
S113149024B004BC9046F0BC08BC04B01847C04655
S11314A02115000080B582B000AF78603B1D01219A
S11314B01800FFF72DF803001800BD4602B080BDE8
S11314C00FB480B588B000AF3B00180015231A0094
S11314D0002103F013F93B0014211800FFF760F812
S11314E02C23FB18BB61BA69B96A3B001800FFF7EB
S11314F0D2FC0300FB61FB691800BD4608B080BC48
S113150008BC04B0184780B582B000AFFB1D1800BA
S1131510FFF7A2F8FB1D1B781800BD4602B080BD82
S113152080B586B000AFF860B9603B60FB1D1A70EF
S113153000237B6100237B611FE0BB681B680133D0
S11315407F2B0AD9BB681B681A00FB6811001800BE
S1131550FEF7DEFFBB6800221A60BB681B681A0036
S1131560FB689B18FA1D12781A70BB681B685A1C1A
S1131570BB681A607B6901337B617A693B689A4274
S1131580DBDBC046BD4606B080BD80B584B000AF8D
S1131590F860B9607A60BB68002B02D101235B421A
S11315A00FE0FB68012B05D0FB68022B02D001235E
S11315B05B4206E07A68BB6811001800FEF7A8FFDA
S11315C07B681800BD4604B080BD80B584B000AF10
S11315D0F860B9607A60FB68002B02D001235B429B
S11315E006E07A68BB6811001800FEF7D9FF030013
S11315F01800BD4604B080BD90B587B002AFF86056
S1131600B9607A603B60BC68FA68396803487B68F3
S113161000932300FFF7FCFE00BEFDE7004A000034
S113162080B584B000AFF860B960FB1D1A70FB1D73
S11316301B78002B05D10122BB689A40FB689A6095
S113164004E00122BB689A40FB685A60C046BD466C
S113165004B080BD80B584B000AFF860B960FB1DF4
S11316601A70FB1D1A78B968FB681800FFF7D8FFD9
S1131670C046BD4604B080BD80B584B000AFF860FC
S1131680B960FB1D1A70FB1D1B78002B07D10122CA
S1131690BB689A4013001A00FB689A6006E00122B6
S11316A0BB689A4013001A00FB685A60C046BD46E6
S11316B004B080BD80B584B000AFF860B960FB1D94
S11316C01A70FB1D1A78B968FB681800FFF7D4FF7D
S11316D0C046BD4604B080BD80B584B000AF78601C
S11316E00023FB6009E00E4BFA689200D3587A6835
S11316F09A4206D0FB680133FB60FB68042BF2D9E5
S113170000E0C046FB68042B05D9064B064A07488F
S11317105E21FFF771FFFB681800BD4604B080BD71
S1131720544A0000684A0000E04A00008C4A000065
S113173080B584B000AFF860B9607A607B68002B34
S113174005D1144B144A15486521FFF755FF7B68F2
S11317501B78002B0AD1FB685B690121BA689140B0
S11317600A00D2431A40FB685A610FE07B685A783A
S1131770B968FB681800FFF76DFFFB685A6901211F
S1131780BB6899400B001A43FB685A61C046BD46CA
S113179004B080BDA04A0000F44A00008C4A000056
S11317A080B584B000AF78607B681800FFF794FFC1
S11317B002000F217B181A707B181A78054B9200CF
S11317C0D358BB60BB68A0229B581800BD4604B028
S11317D080BDC046404A000080B584B000AF786048
S11317E039607B681800FFF777FF02000F217B1830
S11317F01A707B181A78064B9200D358BB60BB68EA
S1131800A0213A685A50C046BD4604B080BDC046C7
S1131810404A000080B584B000AF78600023FB60CC
S113182009E00E4BFA689200D3587A689A4206D0BF
S1131830FB680133FB60FB68042BF2D900E0C0466F
S1131840FB68042B05D9064B064A0748B321FFF76A
S1131850D3FEFB681800BD4604B080BDA84A000052
S1131860BC4A0000044B00008C4A000080B584B0E0
S113187000AFF860B9607A607B68002B05D1144B27
S1131880144A1548C421FFF7B7FE7B681B78002B68
S11318900AD1FB685B690121BA6891400A00D2430E
S11318A01A40FB685A610FE07B685A78B968FB6894
S11318B01800FFF7FFFEFB685A690121BB689940D5
S11318C00B001A43FB685A61C046BD4604B080BD94
S11318D0A04A0000184B00008C4A000080B584B078
S11318E000AF78607B681800FFF794FF02000F21B7
S11318F07B181A707B181A78054B9200D358BB607A
S1131900BB68A0229B581800BD4604B080BDC046E9
S1131910404A000080B584B000AF786039607B68CD
S11319201800FFF777FF02000F217B181A707B184D
S11319301A78064B9200D358BB60BB68A0213A6862
S11319405A50C046BD4604B080BDC046404A00005F
S113195080B582B000AF0200FB1D1A70FB1D1B781E
S11319607F2B09D8FB1D1B781A001F231A40044B38
S1131970012191400A001A60C046BD4602B080BDF4
S113198000E100E080B584B000AF78607B681B0C98
S1131990084A94466344FB60FB6819687B681B042F
S11319A01B0C01229A40FB680A431A60C046BD46DC
S11319B004B080BD0070044080B584B000AF78608E
S11319C07B681B0C094A94466344FB60FB681A68F5
S11319D07B681B041B0C012199400B00D943FB6855
S11319E00A401A60C046BD4604B080BD0070044081
S11319F080B582B000AF0200FB1D1A70FB1D1B787E
S1131A005BB2803301D1012306E0FB1D1B785BB27E
S1131A101800FFF79DFF00231800BD4602B080BDEB
S1131A2080B584B000AF78600323BB600023FB6003
S1131A3009E00F4BFA689200D3587A689A4207D0AB
S1131A40FB680133FB60FA68BB689A42F1D300E09B
S1131A50C046FA68BB689A4205D3064B064A074853
S1131A60A121FFF7C9FDFB681800BD4604B080BD85
S1131A70284B0000444B0000EC4B0000604B00007E
S1131A8080B584B000AF78607B68002B05D1144B1F
S1131A90144A1548A821FFF7AFFD7B685B8C9AB206
S1131AA07B681B8C9BB29A420CD97B681B8C9BB2C3
S1131AB01A007B68DB69D3187A68528C92B29B1A3D
S1131AC0FB6008E07B681B8C9BB21A007B685B8C14
S1131AD09BB2D31AFB60FB681800BD4604B080BDFE
S1131AE0744B0000004C0000604B000080B584B0D3
S1131AF000AF78607B68002B05D1104B104A114869
S1131B00BA21FFF779FD7B681800FFF7B9FF0200DF
S1131B107B68DB69013B9A4204D10F23FB18012245
S1131B201A7003E00F23FB1800221A700F23FB180E
S1131B301B781800BD4604B080BDC046744B00003D
S1131B40244C0000604B0000B0B586B000AFF860D4
S1131B50B9607A60BB68002B05D1794B794A7A4821
S1131B60CC21FFF749FDBB681B68002B05D1774BDF
S1131B70744A7548CD21FFF73FFD16243B19002216
S1131B801A801523FB1800221A7000233B61BB68DE
S1131B901B681B011900786802F03AFC03001A0064
S1131BA03B191A803B191B88002B03D11623FB1801
S1131BB001221A8016257B191B881B0119007868DD
S1131BC002F026FC03001A00BB681B68D31A3B61B1
S1131BD0BB681C687B191B8801331B0119007868DA
S1131BE002F016FC0300E31A3A699A4212D9BB6860
S1131BF01C6816257B191B8801331B0119007868A2
S1131C0002F006FC0300E31A3B617B191A887B1976
S1131C1001321A80BB681B686421180002F0F8FBCB
S1131C2003001A0013005B009B183A699A4201D919
S1131C30474B80E0FB681800FFF7F2FE0200454BBB
S1131C409200D3581800FFF79DFEFB68DB78DBB2E7
S1131C500C229343DAB2FB68DA70FB681B78DBB2C0
S1131C601F229343DAB216217B181B881B0A9BB2EE
S1131C70DBB21343DAB2FB681A707B181B88DAB242
S1131C80FB685A70FB689B78DAB215203B18172161
S1131C908A431A70BB689B799B00DBB20422134011
S1131CA0D9B23B183A1812780A431A70BB681B79E8
S1131CB0002B0AD0BB681A7915217B181B781343B3
S1131CC0DAB27B1810210A431A70FB6815203A18FF
S1131CD012789A70FB681B78DBB220229343DAB245
S1131CE0BB685B795B01DBB220210B40DBB21343A1
S1131CF0DAB2FB681A703B18FA68D2781A70BB68BB
S1131D00DB79002B06D01522BB18BA1812780821EB
S1131D100A431A70BB681B7A002B06D01522BB1825
S1131D20BA18127804210A431A70FB681522BA18EB
S1131D301278DA7000231800BD4606B0B0BDC04664
S1131D407C4B0000444C0000604B0000844B0000BE
S1131D50F5030000384B000080B582B000AF786016
S1131D60C0467B681B79DBB21A0040231340F8D0CD
S1131D707B680022DA707B681800FFF751FE0200CE
S1131D80044B9200D3581800FFF716FEC046BD4618
S1131D9002B080BD384B000090B583B000AF7860CE
S1131DA07B68002B08D1104C104A6C23FF331900B8
S1131DB00F482300FFF720FC7B68E12252021A60DF
S1131DC07B6800221A717B6800225A717B680022AA
S1131DD09A717B680022DA717B6800221A72C0460D
S1131DE0BD4603B090BDC0467C4B0000504C000083
S1131DF0604B000090B589B000AFF860B9607A60BC
S1131E00BB68002B08D1454C454A8223FF33190097
S1131E1044482300FFF7F0FB1E243B1900221A80DC
S1131E200023BB61BB681B011900786802F0F0FA5B
S1131E3003001A003B191A803B191B88002B03D19D
S1131E401E23FB1801221A801E243B191B881B0128
S1131E501900786802F0DCFA03001A00BB68D31A90
S1131E60BB613B191B8801331B011900786802F020
S1131E70CFFA03001A00BB689B1ABA699A4212D9B6
S1131E801E243B191B8801331B011900786802F0DA
S1131E90BFFA03001A00BB689B1ABB613B191A887E
S1131EA03B1901321A80BB686421180002F0B0FAB1
S1131EB003001A0013005B009B18BA699A4227D2E8
S1131EC017217B18FA68D2781A70FB68DB78DBB2CA
S1131ED00C229343DAB2FB68DA70FB681B78DBB23E
S1131EE01F229343DAB21E203B181B881B0A9BB2A5
S1131EF0DBB21343DAB2FB681A703B181B88DAB200
S1131F00FB685A70FB687A181278DA70002300E0D4
S1131F10054B1800BD4609B090BDC0469C4B00005F
S1131F20684C0000604B0000F503000080B582B0EF
S1131F3000AF786039603B68114A13403B607B68AE
S1131F401B78DAB23B68DBB21343DAB27B681A70EF
S1131F507B68DB78DAB23B681B0ADBB21343DAB284
S1131F607B68DA707B689B79DAB23B681B0CDBB266
S1131F701343DAB27B689A71C046BD4602B080BD95
S1131F80C0F00F0080B582B000AF786039603B6864
S1131F90144A13403B607B681B78DBB23A68D2B2C8
S1131FA0D243D2B21340DAB27B681A707B68DB7812
S1131FB0DBB23A68120AD2B2D243D2B21340DAB2D6
S1131FC07B68DA707B689B79DBB23A68120CD2B218
S1131FD0D243D2B21340DAB27B689A71C046BD468E
S1131FE002B080BDC0F00F0080B584B000AF78604F
S1131FF07B681B78DBB21A007B68DB78DBB21B02E0
S11320001A437B689B79DBB21B041343FB60FB68B8
S1132010024A13401800BD4604B080BDC0F00F0052
S113202080B584B000AF78607B681B79DBB21A009E
S11320307B685B79DBB21B021343FB60FB6818000F
S1132040BD4604B080BD80B584B000AF786039600F
S11320500B203B187A6852791A703B183A18127898
S11320603F210A401A703B681B0ADAB23B181B78FE
S11320701343DAB27B685A713B681722134003D0CA
S11320807B681B797B68DB793B680822134003D0AB
S11320907B681B797B68DB797B681800FFF7C0FFDE
S11320A002003B68134002D0044BFB6001E00023B4
S11320B0FB60FB681800BD4604B080BDEE03000061
S11320C080B584B000AFF860B9607A600CE0C046B7
S11320D0FB681B79DBB25BB2002BF9DABB685A1CD4
S11320E0BA601A78FB68DA717B685A1E7A60002B32
S11320F0EDD1C046BD4604B080BD80B586B000AF0A
S1132100F860B9607A60BB68002B05D10C4B0D4AAE
S11321100D490E48FFF770FA00237B6108E0BA68A6
S11321207B69D3181A78FB68DA717B6901337B61A8
S11321307A697B689A42F2D3C046BD4606B080BD38
S1132140AC4B00007C4C000041020000604B0000DE
S113215080B586B000AFF860B9607A60BB68002BC8
S113216032D11E4B1E4A1F491F48FFF745FAFB6830
S11321701800FFF755FF03007B617B6908221340B9
S113218001D01A4B26E07B690422134001D0184B7E
S113219020E07B690222134001D0164B1AE07B69D0
S11321A00122134002D0FD239B0013E0FB681B793E
S11321B0DBB21A0020231340D9D0BB685A1CBA6082
S11321C0FA68D279D2B21A707B685A1E7A60002BF0
S11321D0ECD100231800BD4606B080BDAC4B000016
S11321E0944C00004F020000604B0000F10300001B
S11321F0F2030000F303000080B586B000AFF8607E
S1132200B9607A60BB68002B05D10D4B0D4A0E49AD
S11322100E48FFF7F1F900237B6109E0BA687B6996
S1132220D318FA68D279D2B21A707B6901337B6110
S11322307A697B689A42F1D3C046BD4606B080BD38
S1132240AC4B0000A84C000079020000604B000079
S113225080B586B000AFF860B9607A603B60BB6857
S1132260002B05D1194B1A4A1A491B48FFF7C4F928
S1132270BB6830220021180002F040FABB682D220E
S113228002219954BB682C2200219954BB687A68B6
S11322905A62BB683A689A62FB681800FFF7C0FB91
S11322A003007B610D4B7A699200B968D1500C4BE5
S11322B00C4A1A600C4A7B69D3181B785BB218006D
S11322C0FFF796FBC046BD4606B080BD744B0000C8
S11322D0C04C00008A020000604B00000CE0FF1FAD
S11322E018E0FF1F85280000344B000080B584B03F
S11322F000AFF860B9607A603B60BB68002B05D121
S11323001A4B1B4A1B491C48FFF776F97B68002BC4
S113231005D11A4B164A1A491748FFF76DF9BB68DD
S11323207A689A61BB683A68DA61BB6800221A84E9
S1132330BB6800225A84A2231A03FB681100180008
S1132340FFF7F4FDFB689B78DBB202221340DBB29B
S1132350002B06D080235A02FB6811001800FFF7F7
S1132360E5FDC046BD4604B080BDC046744B0000C8
S1132370DC4C0000A6020000604B0000B44B0000DF
S1132380A702000080B582B000AF786039603B6876
S1132390002B05D1184B194A19491A48FFF72CF993
S11323A03B682D229B5CDBB2022B15D1A2231A03BE
S11323B07B6811001800FFF7E5FD7B689B78DBB2B2
S11323C002221340DBB2002B06D080235A027B6822
S11323D011001800FFF7D6FD3B6800229A613B68A4
S11323E00022DA613B6800221A843B6800225A8486
S11323F0C046BD4602B080BD744B0000FC4C0000DA
S1132400BB020000604B000090B587B000AFF860DD
S1132410B9607A60BB68002B07D1264C264AB423E6
S1132420990026482300FFF7E7F87B68002B05D1C5
S1132430234B214A23492148FFF7DEF87B685B6878
S1132440002B05D1204B1C4A20491C48FFF7D4F827
S11324507B681B68002B05D11D4B174A1D49174883
S1132460FFF7CAF8BB682C229B5CDBB2012B03D1BB
S1132470FA239B007B6118E07B681A68BB681A60CA
S11324807B685A68BB685A607B685A68BB689A6004
S1132490BB682C220121995480231A02FB68110085
S11324A01800FFF743FD00237B617B691800BD46DC
S11324B007B090BD744B0000184D0000604B000045
S11324C0C04B0000D1020000C84B0000D202000043
S11324D0D84B0000D302000080B582B000AF786012
S11324E039603B68002B05D10B4B0C4A0C490D4855
S11324F0FFF782F8C0231A027B6811001800FFF767
S113250041FD3B6800225A603B682C22002199540B
S1132510C046BD4602B080BD744B0000384D00007B
S1132520EE020000604B000090B585B000AFF8608B
S1132530B9607A60BB68002B07D1124C124ABE23E3
S1132540990012482300FFF757F87B68002B05D148
S11325500F4B0D4A0F490D48FFF74EF8BB682C226C
S11325609B5CDBB2002B01D1062307E0BB689A68B1
S1132570BB685B68D21A7B681A6000231800BD46EA
S113258005B090BD744B0000504D0000604B00003E
S1132590E44B0000F902000090B58BB000AFF86086
S11325A0B9607A603B60BB68002B05D16D4B6E4A05
S11325B06E496F48FFF720F87B68002B05D16D4BFF
S11325C0694A6D496A48FFF717F87B681B68002B56
S11325D007D16A4C644AC323990065482300FFF776
S11325E00BF87B685B68002B05D1654B5E4A654937
S11325F05F48FFF701F800237B61BB682D229B5CD9
S1132600DBB2032B02D1604B3B62A6E07B685B68C4
S1132610FB610023BB61BB689B69002B00D16EE0AA
S113262080239A01FB6811001800FFF7ABFCBB681C
S11326301800FFF725FA03007B617B69002B34D077
S1132640FA697B69934200D913007B61FA697B695B
S1132650D31AFB6100237B6223E0BB689B69BA68E1
S1132660528C92B29A187B681968BB69581CB8617D
S1132670CB1812781A70BB685B8C9BB25A1CBB686F
S1132680DB699A4203D1BB6800225A8406E0BB6826
S11326905B8C9BB201339AB2BB685A847B6A013368
S11326A07B627A6A7B699A42D7D3FB69002B0FD08D
S11326B07B681A68BB69D218BB68DA60BB68FA69C0
S11326C01A61BB68FA695A61BB682D2203219954C7
S11326D080239A01FB6811001800FFF727FCFB69AF
S11326E0002B32D1BB685B6A002B2ED0BB685C6ABE
S11326F0BB689B6A254AB968F868A04725E07B68EF
S11327001A68BB69D218BB68DA60BB68FA691A61D7
S1132710BB68FA695A61BB682D2203219954A3232B
S11327201A03FB6811001800FFF700FCFB689B7894
S1132730DBB202221340DBB2002B06D080235A0204
S1132740FB6811001800FFF7F1FB3B68002B02D077
S11327503B68BA691A6000233B623B6A1800BD46B5
S11327600BB090BD744B00006C4D00000A030000D8
S1132770604B0000C04B00000B030000D84B00006E
S1132780C84B00000D030000E9030000EB03000048
S113279080B582B000AF786039603B68002B05D10A
S11327A0154B164A16491748FEF726FF3B689B69E6
S11327B0002B15D1A3231A037B6811001800FFF71F
S11327C0E1FB7B689B78DBB202221340DBB2002B77
S11327D006D080235A027B6811001800FFF7D2FB51
S11327E03B6800221A613B682D2202219954C0469D
S11327F0BD4602B080BDC046744B00008C4D000045
S113280081030000604B000080B584B000AFF86025
S1132810B9607A60BB68002B05D1144B144A154982
S11328201548FEF7E9FE7B68002B05D1134B104ACF
S113283013491148FEF7E0FEBB682D229B5CDBB216
S1132840022B01D106230CE07B68002B01D1042369
S113285007E0BB685A69BB681B69D21A7B681A60B7
S113286000231800BD4604B080BDC046744B000070
S1132870A84D000096030000604B0000E44B0000EC
S113288097030000B0B584B000AF786039603B684E
S1132890002B05D1AA4BAB4AAB49AC48FEF7ACFEC2
S11328A07B681B79DBB202221340DBB2002B1CD005
S11328B001E07B68DB797B681B79DBB21A0020239B
S11328C01340F6D13B682D22042199543B68002221
S11328D01A613B685B6A002B07D03B685C6A3B6803
S11328E09B6A9B4A39687868A0477B681B79DBB28E
S11328F001221340DBB2002B1ED001E07B68DB79A0
S11329007B681B79DBB21A0020231340F6D13B68A5
S11329102D22052199543B6800221A613B685B6AA9
S1132920002B09D03B685C6A3B689D6AFD239A00D2
S1132930396878682B00A0477B681B79DBB20822D2
S11329401340DBB2002B15D001E07B68DB797B6898
S11329501B79DBB21A0020231340F6D13B685B6A73
S1132960002B07D03B685C6A3B689B6A794A3968EC
S11329707868A0477B681B79DBB210221340DBB276
S1132980002B2DD07B68DB78DBB210221340DBB246
S1132990002B25D001E07B68DB797B681B79DBB2F7
S11329A010221340DBB2002BF5D13B681B69002BCE
S11329B006D180235A017B6811001800FFF7E2FA60
S11329C03B685B6A002B0BD03B681B69002B07D06C
S11329D03B685C6A3B689B6A5F4A39687868A047D1
S11329E07B681B79DBB220221340DBB2002B00D1C1
S11329F0D0E07B68DB78DBB220221340DBB2002B13
S1132A0000D1C7E00F23FB1801221A7037E00E2013
S1132A103B1801221A703B68D96804003B181A78E5
S1132A207B681800FFF7E8FB3B68DA6820003B1876
S1132A301B78D2183B68DA603B681A693B181B782C
S1132A40D21A3B681A610F22BB18B9183A180978D0
S1132A5012788A1A1A703B681B69002B0FD13B68E5
S1132A602D22022199543B685B6A002B07D03B68F6
S1132A705C6A3B689B6A394A39687868A0470F23C7
S1132A80FB181B78002B03D03B681B69002BBED1BD
S1132A903B689B69002B63D049E03B681800FFF753
S1132AA025F8031E0DD03B685B6A002B09D03B68F8
S1132AB05C6A3B689D6AFC239A00396878682B003D
S1132AC0A0473B681800FFF711F8031E12D03B68BB
S1132AD05B8C9BB25A1C3B68DB699A4203D13B680E
S1132AE000225A8406E03B685B8C9BB201339AB2A5
S1132AF03B685A843B689B693A68128C92B29B1873
S1132B007A68D279D2B21A703B681B8C9BB25A1C79
S1132B103B68DB699A4203D13B6800221A8406E0D1
S1132B203B681B8C9BB201339AB23B681A840F2218
S1132B30BB181B78BA18591E1170002BADD129E0AF
S1132B40744B0000C84D0000AA030000604B000055
S1132B50F3030000F1030000F6030000EB030000A0
S1132B603B681B69002B15D1A2231A037B68110053
S1132B701800FFF707FA7B689B78DBB20222134048
S1132B80DBB2002B06D080235A027B6811001800A8
S1132B90FFF7F8F93B682D229B5CDBB2042B05D0D0
S1132BA03B682D229B5CDBB2052B19D13B689B69EA
S1132BB0002B15D1A3231A037B6811001800FFF71B
S1132BC0E1F97B689B78DBB202221340DBB2002B75
S1132BD006D080235A027B6811001800FFF7D2F94F
S1132BE07B681B79DBB25BB2002B53DA7B68DB7842
S1132BF0DBB25BB2002B4DDA0F23FB1801221A70F3
S1132C003FE00E203B1801221A703B68196804004B
S1132C103B181A787B681800FFF76FFA3B681A684C
S1132C2020003B181B78D2183B681A603B685A682E
S1132C303B181B78D21A3B685A600F22BB18B9188C
S1132C403A18097812788A1A1A703B685B68002B64
S1132C5017D13B682C22002199547B68DB78DBB2C6
S1132C607F221340DAB27B68DA703B685B6A002B20
S1132C7007D03B685C6A3B689B6A084A3968786895
S1132C80A0470F23FB181B78002B03D03B685B681D
S1132C90002BB6D1C046BD4604B0B0BDEA03000067
S1132CA080B582B000AF78603960C046BD4602B0DE
S1132CB080BD80B500AF054B1A68054B5B680548BD
S1132CC019009047C046BD4680BDC04618E0FF1FAE
S1132CD00CE0FF1F00B0064080B500AFFFF7E9FF2E
S1132CE0C046BD4680BD80B500AF054B1A68054B94
S1132CF09B68054819009047C046BD4680BDC04644
S1132D0018E0FF1F0CE0FF1F00C0064080B500AFB5
S1132D10FFF7E9FFC046BD4680BDC04680B582B01E
S1132D2000AF0200FB1D1A70FB1D1B787F2B09D816
S1132D30FB1D1B781A001F231A40044B01219140EC
S1132D400A001A60C046BD4602B080BD00E100E042
S1132D5080B584B000AF78607B681B0C084A944649
S1132D606344FB60FB6819687B681B041B0C01222D
S1132D709A40FB680A431A60C046BD4604B080BD51
S1132D800070044080B584B000AF78607B681B0C91
S1132D90094A94466344FB60FB681A687B681B0419
S1132DA01B0C012199400B00D943FB680A401A60AF
S1132DB0C046BD4604B080BD0070044080B582B0FA
S1132DC000AF0200FB1D1A70FB1D1B785BB2803341
S1132DD001D1012306E0FB1D1B785BB21800FFF74D
S1132DE09DFF00231800BD4602B080BD80B584B0AD
S1132DF000AF78600023FB6006E00D4A7B689342D5
S1132E0006D0FB680133FB60FB68002BF5D000E0C3
S1132E10C046FB68002B05D0064B074A07488921AA
S1132E20FEF7EAFBFB681800BD4604B080BDC0464F
S1132E3000A00640EC4D00009C4E0000104E000027
S1132E4080B584B000AF78607B68002B05D1144B4B
S1132E50144A15489021FEF7CFFB7B685B8C9AB22D
S1132E607B681B8C9BB29A420CD97B681B8C9BB2EF
S1132E701A007B68DB69D3187A68528C92B29B1A69
S1132E80FB6008E07B681B8C9BB21A007B685B8C40
S1132E909BB2D31AFB60FB681800BD4604B080BD2A
S1132EA0244E0000B04E0000104E000080B584B0E7
S1132EB000AF78607B68002B05D1104B104A114895
S1132EC0A221FEF799FB7B681800FFF7B9FF020007
S1132ED07B68DB69013B9A4204D10F23FB18012272
S1132EE01A7003E00F23FB1800221A700F23FB183B
S1132EF01B781800BD4604B080BDC046244E0000B7
S1132F00D44E0000104E000080B586B000AFF860CB
S1132F10B9607A60BB68002B05D10D4B0D4A0E4891
S1132F20B421FEF769FB00237B6109E0BA687B6981
S1132F30D318FA68D279D2B21A707B6901337B61F3
S1132F407A697B689A42F1D3C046BD4606B080BD1B
S1132F502C4E0000F84E0000104E000080B586B0E4
S1132F6000AFF860B9607A60BB68002B05D10D4BE7
S1132F700D4A0E48C221FEF73FFB00237B6108E0A7
S1132F80BA687B69D3181A78FB68DA717B690133F4
S1132F907B617A697B689A42F2D3C046BD4606B02B
S1132FA080BDC0462C4E0000104F0000104E0000A3
S1132FB0B0B58CB000AFF860B9607A60BB68002B24
S1132FC005D1974B974A9848D021FEF715FBBB686B
S1132FD01B68002B05D1954B924A9348D121FEF7EB
S1132FE00BFB2C23FB1800221A8000237B62BB6896
S1132FF01B68BB6104233B625BE0BB681B683A6AE5
S113300053431900786801F003FA03001A002A21D7
S11330107B181A807B181B88002B03D12A23FB18EA
S113302001221A802A257B191B883A6A5343190006
S1133030786801F0EDF903007B61BB681B687A696D
S1133040D31AFB61BB681C687B191B8801331A0007
S11330503B6A53431900786801F0DAF90300E31A74
S1133060FA699A4214D9BB681C682A257B191B8803
S113307001331A003B6A53431900786801F0C8F918
S11330800300E31AFB617B191A887B1901321A8049
S1133090FA69BB699A4209D8FB69BB613B6A7B62E6
S11330A02C23FB182A22BA1812881A803B6A01338F
S11330B03B623B6A202BA0D9BB681B6864211800C3
S11330C001F0A6F903001A0013005B009B18BA690B
S11330D09A4201D9564B9EE0FB681800FFF786FE22
S11330E0544B1800FFF734FEFB68DB78DBB20C228C
S11330F09343DAB2FB68DA707B6A032B0AD97B6AE2
S1133100072B07D8FB68DB7ADBB202221343DAB25F
S1133110FB68DA72FB689B7ADBB21F229343DAB254
S11331207B6ADBB2013BDBB21343DAB2FB689A720F
S1133130FB689B7ADBB21F229343DAB22C217B1803
S11331401B881B0A9BB2DBB21343DAB2FB681A700A
S11331507B181B88DAB2FB685A70FB689B78DAB27A
S11331602F203B1817218A431A70BB689B799B0058
S1133170DBB204221340D9B23B183A1812780A433E
S11331801A70BB681B79002B0AD0BB681A792F21EF
S11331907B181B781343DAB27B1810210A431A7088
S11331A0FB682F203A1812789A70FB681B78DBB200
S11331B020229343DAB2FB681A70FB681B78DAB2F8
S11331C0BB685B795B01DBB220210B40DBB21343AC
S11331D0DAB2FB681A703B18FA68D2781A70BB68C6
S11331E0DB79002B06D02F22BB18BA1812780821DD
S11331F00A431A70BB681B7A002B06D02F22BB1817
S1133200BA18127804210A431A70FB682F22BA18DC
S11332101278DA7000231800BD460CB0B0BDC04669
S1133220344E0000284F0000104E00003C4E0000B9
S1133230B50400000A00341080B582B000AF786095
S1133240C0467B681B79DBB21A0040231340F8D0D8
S11332507B681800FFF7CAFD034B1800FFF792FDC7
S1133260C046BD4602B080BD0A00341090B583B09C
S113327000AF78607B68002B07D10F4C0F4AA8235E
S113328059000F482300FEF7B7F97B68E122520288
S11332901A607B6800221A717B6800225A717B686D
S11332A000229A717B680022DA717B6800221A720C
S11332B0C046BD4603B090BD344E0000344F0000FC
S11332C0104E0000B0B58CB000AFF860B9607A6001
S11332D0BB68002B07D1664C664AAE23590066488A
S11332E02300FEF789F90023BB6200237B62BB68DD
S11332F0BB612323FB1804221A7061E02323FB180B
S11333001B78BA6853431900786801F081F8030008
S11333101A002E217B181A807B181B88002B03D1DE
S11333202E23FB1801221A8023243B191B782E25F7
S11333307A19128853431900786801F069F8030078
S11333403B613A69BB68D31AFB613B191B787A1954
S11333501288013253431900786801F059F80300C8
S11333601A00BB689B1AFA699A4215D92323FB18E1
S11333701B782E243A1912880132534319007868B5
S113338001F046F803001A00BB689B1AFB613B1965
S11333901A883B1901321A80FA69BB699A4209D822
S11333A0FB69BB612323FB181B78BB622E23FB182C
S11333B01B887B6223217B181A787B1801321A70D0
S11333C02323FB181B78202B98D9BB686421180091
S11333D001F01EF803001A0013005B009B18BA6981
S11333E09A4240D21723FB18FA68D2781A70FB6805
S11333F0DB78DBB20C229343DAB2FB68DA70BB6A87
S1133400032B0AD9BB6A072B07D8FB68DB7ADBB22C
S113341002221343DAB2FB68DA72FB689B7ADBB2EE
S11334201F229343DAB2BB6ADBB2013BDBB2134324
S1133430DAB2FB689A72FB689B7ADBB21F22934371
S1133440DAB27B6A1B0ADBB21343DAB2FB681A7086
S11334507B6ADAB2FB685A70FB681722BA181278D2
S1133460DA70002300E0054B1800BD460CB0B0BD77
S1133470544E00004C4F0000104E0000B5040000F4
S113348080B582B000AF786039603B68114A134060
S11334903B607B681B78DAB23B68DBB21343DAB279
S11334A07B681A707B68DB78DAB23B681B0ADBB294
S11334B01343DAB27B68DA707B689B79DAB23B68D3
S11334C01B0CDBB21343DAB27B689A71C046BD466B
S11334D002B080BDC0F00F0080B582B000AF78604C
S11334E039603B68144A13403B607B681B78DBB24D
S11334F03A68D2B2D243D2B21340DAB27B681A70BD
S11335007B68DB78DBB23A68120AD2B2D243D2B219
S11335101340DAB27B68DA707B689B79DBB23A6875
S1133520120CD2B2D243D2B21340DAB27B689A718F
S1133530C046BD4602B080BDC0F00F0080B584B067
S113354000AF78607B681B78DBB21A007B68DB789D
S1133550DBB21B021A437B689B79DBB21B04134367
S1133560FB60FB68024A13401800BD4604B080BDEE
S1133570C0F00F0080B584B000AF78607B681B7921
S1133580DBB21A007B685B79DBB21B021343FB607E
S1133590FB681800BD4604B080BD80B584B000AFA0
S11335A0786039600B217B1800221A707B181B7815
S11335B0DBB20133DAB27B181A703A6880231B023B
S11335C0134006D07B6880225A713B68154A134029
S11335D03B603A688023DB01134006D07B684022BD
S11335E05A713B68104A13403B603B681F221340EA
S11335F00AD03B68DBB21F221340DAB27B681A712F
S11336003B681F2293433B603B68002B02D0074B6F
S1133610FB6001E00023FB60FB681800BD4604B0BA
S113362080BDC046FF7FFFFFFFBFFFFFB404000063
S113363080B584B000AFF860B9607A60BB68002BD5
S113364012D10E4B0E4A0F490F48FDF7D5FFC04665
S1133650FB681B79DBB25BB2002BF9DABB685A1C3E
S1133660BA601A78FB68DA717B685A1E7A60002B9C
S1133670EDD1C046BD4604B080BDC0462C4E00000E
S1133680604F000005020000104E000090B587B0A6
S113369000AFF860B9607A60BB68002B48D1294C50
S11336A0294A8523990029482300FDF7A5FFFB68D3
S11336B01800FFF75FFF03007B617B69082213405A
S11336C007D0FB6808211800FFF767FF9723DB008A
S11336D034E07B690422134006D0FB6804211800FF
S11336E0FFF75BFF1A4B29E07B690222134006D0E7
S11336F0FB6802211800FFF750FF164B1EE07B69A0
S11337000122134006D0FB6801211800FFF745FF92
S1133710114B13E0FB681B79DBB21A002023134022
S1133720C5D0BB685A1CBA60FA68D279D2B21A7092
S11337307B685A1E7A60002BECD100231800BD462A
S113374007B090BD2C4E0000744F0000104E0000D6
S1133750B9040000BA040000BB04000080B586B0C0
S113376000AFF860B9607A603B60BB68002B05D19C
S1133770174B184A18491948FDF73EFFBB68302219
S11337800021180000F0BAFFBB682D2202219954D1
S1133790BB682C2200219954BB687A685A62BB68C2
S11337A03A689A62FB681800FFF720FB03007B610C
S11337B00B4B7A699200B968D1500A4B0A4A1A60D5
S11337C00C231800FFF7FAFAC046BD4606B080BDC8
S11337D0244E0000884F000041020000104E0000FB
S11337E01CE0FF1F20E0FF1F793D000080B584B07E
S11337F000AFF860B9607A603B60BB68002B05D10C
S11338001A4B1B4A1B491C48FDF7F6FE7B68002B2C
S113381005D11A4B164A1A491748FDF7EDFEBB6845
S11338207A689A61BB683A68DA61BB6800221A84D4
S1133830BB6800225A84A2231A03FB6811001800F3
S1133840FFF71EFEFB689B78DBB202221340DBB25B
S1133850002B06D080235A02FB6811001800FFF7E2
S11338600FFEC046BD4604B080BDC046244E0000D5
S1133870A44F00005E020000104E0000644E0000E1
S11338805F02000080B582B000AF786039603B68A9
S1133890002B05D1184B194A19491A48FDF7ACFEFB
S11338A03B682D229B5CDBB2022B15D1A2231A03A9
S11338B07B6811001800FFF70FFE7B689B78DBB272
S11338C002221340DBB2002B06D080235A027B680D
S11338D011001800FFF700FE3B6800229A613B6864
S11338E00022DA613B6800221A843B6800225A8471
S11338F0C046BD4602B080BD244E0000C44F000047
S113390073020000104E000090B587B000AFF8605D
S1133910B9607A60BB68002B05D1264B264A27493B
S11339202748FDF769FE7B68002B05D1254B224A09
S113393025492348FDF760FE7B685B68002B05D1B1
S1133940224B1D4A22491E48FDF756FE7B681B6820
S1133950002B07D11F4C184AA323990018482300B1
S1133960FDF74AFEBB682C229B5CDBB2012B03D122
S11339709623DB007B6118E07B681A68BB681A60D9
S11339807B685A68BB685A607B685A68BB689A60EF
S1133990BB682C220121995480231A02FB68110070
S11339A01800FFF76DFD00237B617B691800BD469D
S11339B007B090BD244E0000E44F000089020000CF
S11339C0104E0000704E00008A020000784E000085
S11339D08B020000884E000080B582B000AF786092
S11339E039603B68002B05D10B4B0C4A0C490D4840
S11339F0FDF702FEC0231A027B6811001800FFF7CE
S1133A006BFD3B6800225A603B682C2200219954CC
S1133A10C046BD4602B080BD244E000004500000E4
S1133A20A7020000104E000080B584B000AFF8601B
S1133A30B9607A60BB68002B05D1114B114A124959
S1133A401248FDF7D9FD7B68002B05D1104B0D4AB8
S1133A5010490E48FDF7D0FDBB682C229B5CDBB2FD
S1133A60002B01D1062307E0BB689A68BB685B683A
S1133A70D21A7B681A6000231800BD4604B080BDCA
S1133A80244E00001C500000B1020000104E000043
S1133A90944E0000B202000090B58BB000AFF86005
S1133AA0B9607A603B60BB68002B05D16D4B6E4AF0
S1133AB06E496F48FDF7A0FD7B68002B07D16D4C64
S1133AC0694AB12399006A482300FDF795FD7B6894
S1133AD05B68002B05D1684B634A68496448FDF76D
S1133AE08BFD7B681B68002B05D1654B5E4A6549DD
S1133AF05F48FDF781FD00237B61BB682D229B5C41
S1133B00DBB2032B02D1604B3B62A6E07B685B68AF
S1133B10FB610023BB61BB689B69002B00D16EE095
S1133B2080239A01FB6811001800FFF7D5FCBB68DD
S1133B301800FFF785F903007B617B69002B34D003
S1133B40FA697B69934200D913007B61FA697B6946
S1133B50D31AFB6100237B6223E0BB689B69BA68CC
S1133B60528C92B29A187B681968BB69581CB86168
S1133B70CB1812781A70BB685B8C9BB25A1CBB685A
S1133B80DB699A4203D1BB6800225A8406E0BB6811
S1133B905B8C9BB201339AB2BB685A847B6A013353
S1133BA07B627A6A7B699A42D7D3FB69002B0FD078
S1133BB07B681A68BB69D218BB68DA60BB68FA69AB
S1133BC01A61BB68FA695A61BB682D2203219954B2
S1133BD080239A01FB6811001800FFF751FCFB6970
S1133BE0002B32D1BB685B6A002B2ED0BB685C6AA9
S1133BF0BB689B6A254AB968F868A04725E07B68DA
S1133C001A68BB69D218BB68DA60BB68FA691A61C2
S1133C10BB68FA695A61BB682D2203219954A32316
S1133C201A03FB6811001800FFF72AFCFB689B7855
S1133C30DBB202221340DBB2002B06D080235A02EF
S1133C40FB6811001800FFF71BFC3B68002B02D037
S1133C503B68BA691A6000233B623B6A1800BD46A0
S1133C600BB090BD244E000038500000C302000089
S1133C70104E0000704E0000784E0000C502000097
S1133C80884E0000C6020000B1040000B304000026
S1133C9080B582B000AF786039603B68002B05D1F5
S1133CA0154B164A16491748FDF7A6FC3B689B6955
S1133CB0002B15D1A3231A037B6811001800FFF70A
S1133CC00BFC7B689B78DBB202221340DBB2002B37
S1133CD006D080235A027B6811001800FFF7FCFB12
S1133CE03B6800221A613B682D2202219954C04688
S1133CF0BD4602B080BDC046244E00005C500000AA
S1133D003A030000104E000090B585B000AFF86093
S1133D10B9607A60BB68002B05D1124B124A134973
S1133D201348FDF769FC7B68002B07D1114C0E4A40
S1133D30D42399000E482300FDF75EFCBB682D22B6
S1133D409B5CDBB2022B01D1062307E0BB685A69F6
S1133D50BB681B69D21A7B681A6000231800BD4631
S1133D6005B090BD244E0000785000004F030000C1
S1133D70104E0000944E0000B0B584B000AF7860DF
S1133D8039603B68002B05D1C84BC94AC949CA48A8
S1133D90FDF732FC7B681B79DBB201221340DBB2F6
S1133DA0002B14D03B682D22052199547B680121F6
S1133DB01800FFF7F2FB3B685B6A002B07D03B68F7
S1133DC05C6A3B689B6ABD4A39687868A0477B682F
S1133DD01B79DBB202221340DBB2002B14D03B6808
S1133DE02D22042199547B6802211800FFF7D5FB8A
S1133DF03B685B6A002B07D03B685C6A3B689B6A44
S1133E00AF4A39687868A0477B681B79DBB208221F
S1133E101340DBB2002B1DD001E07B68DB797B68AB
S1133E201B79DBB220221340DBB2002BF5D17B6877
S1133E3008211800FFF7B1FB3B685B6A002B09D02F
S1133E403B685C6A3B689D6A9723DA003968786846
S1133E502B00A0477B681B79DBB210221340DBB236
S1133E60002B23D07B68DB78DBB210221340DBB25B
S1133E70002B1BD07B6810211800FFF78EFB3B68DA
S1133E801B69002B06D180235A017B68110018009E
S1133E90FFF722FB3B685B6A002B07D03B685C6A38
S1133EA03B689B6A874A39687868A0477B681B79B6
S1133EB0DBB220221340DBB2002B00D1BEE07B68D2
S1133EC0DB78DBB220221340DBB2002B00D1B5E05B
S1133ED00F23FB1801221A7037E00E203B18012231
S1133EE01A703B68D96804003B181A787B6818007C
S1133EF0FFF70AF83B68DA6820003B181B78D218F1
S1133F003B68DA603B681A693B181B78D21A3B6835
S1133F101A610F22BB18B9183A18097812788A1A4C
S1133F201A703B681B69002B0FD13B682D220221BC
S1133F3099543B685B6A002B07D03B685C6A3B681A
S1133F409B6A614A39687868A0470F23FB181B787D
S1133F50002B03D03B681B69002BBED13B689B69D7
S1133F60002B51D047E03B681800FEF79FFF031E6B
S1133F700BD03B685B6A002B07D03B685C6A3B68EC
S1133F809B6A524A39687868A0473B681800FEF774
S1133F908DFF031E12D03B685B8C9BB25A1C3B689E
S1133FA0DB699A4203D13B6800225A8406E03B68ED
S1133FB05B8C9BB201339AB23B685A843B689B6921
S1133FC03A68128C92B29B187A68D279D2B21A707B
S1133FD03B681B8C9BB25A1C3B68DB699A4203D139
S1133FE03B6800221A8406E03B681B8C9BB20133B9
S1133FF09AB23B681A840F22BB181B78BA18591E50
S11340001170002BAFD119E03B681B69002B15D14F
S1134010A2231A037B6811001800FFF75DFA7B687E
S11340209B78DBB202221340DBB2002B06D0802344
S11340305A027B6811001800FFF74EFA3B682D22E4
S11340409B5CDBB2042B05D03B682D229B5CDBB26E
S1134050052B19D13B689B69002B15D1A2231A03A8
S11340607B6811001800FFF737FA7B689B78DBB296
S113407002221340DBB2002B06D080235A027B6855
S113408011001800FFF728FA7B681B79DBB25BB2DA
S1134090002B66DA7B68DB78DBB25BB2002B60DA7C
S11340A00F23FB1801221A7052E0C046244E000070
S11340B0985000005E030000104E0000BB04000096
S11340C0BA040000BC040000B3040000B7040000FC
S11340D00E203B1801221A703B68196804003B1833
S11340E01A787B681800FEF739FF3B681A682000CD
S11340F03B181B78D2183B681A603B685A683B1817
S11341001B78D21A3B685A600F22BB18B9183A18A8
S1134110097812788A1A1A703B685B68002B17D1E9
S11341203B682C22002199547B68DB78DBB27F2228
S11341301340DAB27B68DA703B685B6A002B07D005
S11341403B685C6A3B689B6A084A39687868A047A0
S11341500F23FB181B78002B03D03B685B68002BF4
S1134160B6D1C046BD4604B0B0BDC046B2040000DE
S113417080B582B000AF78603960C046BD4602B0F9
S113418080BD80B500AF054B1A68054B1B68054818
S113419019009047C046BD4680BDC04620E0FF1FC1
S11341A01CE0FF1F00A0064080B584B000AF72B6CB
S11341B0154B00221A60154BFB60154BBB6007E0E2
S11341C0FA68131DFB60BB68191DB96012681A6098
S11341D0BA68104B9A42F3D30F4BBB6004E0BB6840
S11341E01A1DBA6000221A60BA680C4B9A42F6D3C0
S11341F00B4B7B600B4A7B681A6062B600F0D8F800
S1134200C046BD4604B080BD00810440B8500000E3
S113421000E0FF1F04E0FF1F04E0FF1F28E0FF1F72
S113422008ED00E00000000080B500AFFEE7C046E6
S113423090B583B000AF02003960FB1D1A70FB1DFE
S11342401B787F2B28D82F4AFB1D1B785BB29B0859
S1134250C0339B009B58FA1D1278110003220A40B8
S1134260D200FF2191400A00D2431A4011003B685A
S11342709B01FF221A40FB1D1B78180003230340F7
S1134280DB009A401F48FB1D1B785BB29B080A4366
S1134290C0339B001A5031E01B4AFB1D1B781900E8
S11342A00F230B40083B9B0806339B00D3180433B1
S11342B01B68FA1D1278110003220A40D200FF2164
S11342C091400A00D2431A4011003B689B01FF222F
S11342D01A40FB1D1B78180003230340DB009A409F
S11342E00948FB1D1B781C000F232340083B9B0837
S11342F00A4306339B00C31804331A60C046BD4604
S113430003B090BD00E100E000ED00E080B582B0B4
S113431000AF78607B68013B0C4A934201D90123CA
S113432010E00B4B7A68013A5A6001235B42032187
S11343301800FFF77DFF064B00229A60044B07220A
S11343401A6000231800BD4602B080BDFFFFFF00C5
S113435010E000E080B582B000AF786039607B681F
S11343603A68DA60C046BD4602B080BD80B500AF91
S1134370054B1B68002B04D0034B1B685A1E024BD1
S11343801A60C046BD4680BD24E0FF1F80B582B0E0
S113439000AF7860054B7A681A60C046034B1B680F
S11343A0002BFBD1C046BD4602B080BD24E0FF1FF8
S11343B080B582B000AF3B1D01221A703B1D002264
S11343C05A70FCF766F83B1D0F481A001D21FDF7D3
S11343D0AFF90E4B1A68FA239900100000F018F890
S11343E003001800FFF792FF031E00D0FEE7FA2334
S11343F09B001800FFF7CAFF80239B05024A19009F
S11344001000FFF7A7FFF2E700F10F4000E0FF1FE5
S1134410002243088B4274D303098B425FD3030AFF
S11344208B4244D3030B8B4228D3030C8B420DD312
S1134430FF22090212BA030C8B4202D312120902A0
S113444065D0030B8B4219D300E0090AC30B8B42DE
S113445001D3CB03C01A5241830B8B4201D38B038C
S1134460C01A5241430B8B4201D34B03C01A524131
S1134470030B8B4201D30B03C01A5241C30A8B4274
S113448001D3CB02C01A5241830A8B4201D38B025F
S1134490C01A5241430A8B4201D34B02C01A524103
S11344A0030A8B4201D30B02C01A5241CDD2C30975
S11344B08B4201D3CB01C01A524183098B4201D3F1
S11344C08B01C01A524143098B4201D34B01C01ADC
S11344D0524103098B4201D30B01C01A5241C30854
S11344E08B4201D3CB00C01A524183088B4201D3C3
S11344F08B00C01A524143088B4201D34B00C01AAF
S11345005241411A00D20146524110467047FFE71A
S113451001B5002000F0F0F802BDC0460029F7D034
S113452076E7704703460B437FD4002243088B424F
S113453074D303098B425FD3030A8B4244D3030B26
S11345408B4228D3030C8B420DD3FF22090212BAEB
S1134550030C8B4202D31212090265D0030B8B4267
S113456019D300E0090AC30B8B4201D3CB03C01A51
S11345705241830B8B4201D38B03C01A5241430B2C
S11345808B4201D34B03C01A5241030B8B4201D31C
S11345900B03C01A5241C30A8B4201D3CB02C01A87
S11345A05241830A8B4201D38B02C01A5241430AFF
S11345B08B4201D34B02C01A5241030A8B4201D3EE
S11345C00B02C01A5241CDD2C3098B4201D3CB0195
S11345D0C01A524183098B4201D38B01C01A524144
S11345E043098B4201D34B01C01A524103098B4248
S11345F001D30B01C01A5241C3088B4201D3CB0033
S1134600C01A524183088B4201D38B00C01A524115
S113461043088B4201D34B00C01A5241411A00D2C5
S113462001465241104670475DE0CA0F00D049422E
S1134630031000D34042534000229C4603098B429E
S11346402DD3030A8B4212D3FC22890112BA030A26
S11346508B420CD3890192118B4208D389019211A8
S11346608B4204D389013AD0921100E08909C3092D
S11346708B4201D3CB01C01A524183098B4201D32F
S11346808B01C01A524143098B4201D34B01C01A1A
S1134690524103098B4201D30B01C01A5241C30892
S11346A08B4201D3CB00C01A524183088B4201D301
S11346B08B00C01A5241D9D243088B4201D34B001C
S11346C0C01A5241411A00D20146634652415B105E
S11346D0104601D34042002B00D54942704763463F
S11346E05B1000D3404201B5002000F005F802BD84
S11346F00029F8D016E770477047C046F0B5830725
S113470046D0541E002A42D0CEB20200032502E055
S11347101A00013C3BD3531C16702B42F8D1032CD6
S11347202DD9FF220A40150215432A0415430F2CE4
S113473016D92700103F3F093E01B4461E001A0057
S113474010366644156055609560D5601032B242EB
S1134750F8D10F2201373F01DB191440032C0ED985
S1134760261FB608B700BC461A001F1D674420C2A6
S1134770BA42FCD103220136B6009B191440002C26
S113478005D0C9B21C19197001339C42FBD1F0BD8C
S113479014000300C3E7C04610B5040083070AD021
S11347A00378002B23D0032202E00378002B1CD0D3
S11347B001301042F9D102680E4B0F49D3189343CC
S11347C00B420FD1043002680A4BD31893430B42B7
S11347D008D104300268074BD31893430B42F1D03D
S11347E000E001300378002BFBD1001B10BD00203A
S11347F0FCE7C046FFFEFEFE808080806275662076
S1134800213D204E554C4C007574696C6974696582
S1134810732F66736C5F6C6F672E6300636820216F
S11348203D204E554C4C00004C4F475F507573680B
S1134830000000004C4F475F526561644C696E652F
S1134840000000004C4F475F526561644368617229
S113485061637465720000004E554C4C20213D206C
S1134860696F00007574696C69746965732F667388
S11348706C5F696F2E630000494F5F496E69740075
S1134880580F0000580F0000580F0000580F000088
S1134890580F0000580F0000580F0000580F000078
S11348A0580F0000580F00005A1000005A10000062
S11348B05A1000005A1000005A1000005A1000004C
S11348C05A1000005A1000005A1000005A1000003C
S11348D05A1000005A1000005A1000005A1000002C
S11348E05A1000005A1000005A1000005A1000001C
S11348F05A1000005A1000005A1000005A1000000C
S11349005A1000005A1000005A1000005A100000FB
S11349105A1000005A1000005A1000005A100000EB
S1134920EC0F00005A1000005A1000005A1000004A
S11349305A1000005A1000005A1000005A100000CB
S11349405A1000005A1000005A1000001C100000F9
S11349509A0F00005A1000005A1000005A1000006C
S11349605A100000041000005A1000005A100000F1
S11349705A1000005A1000005A100000D40F000012
S11349805A1000005A1000005A1000004010000095
S11349905A100000BC0F00005A1000005A1000000A
S11349A0EC0F000064657669636520213D20444571
S11349B04255475F434F4E534F4C455F444556491C
S11349C043455F545950455F4E4F4E45000000002B
S11349D07574696C69746965732F66736C5F64655B
S11349E06275675F636F6E736F6C652E63000000A2
S11349F0446267436F6E736F6C655F496E697400E0
S1134A00415353455254204552524F52202220259F
S1134A107320223A2066696C652022257322204C7B
S1134A20696E6520222564222066756E6374696F41
S1134A306E206E616D652022257322200A0000001D
S1134A400090044000A0044000B0044000C00440B2
S1134A5000D0044000F00F4040F00F4080F00F40C1
S1134A60C0F00F4000F10F40696E7374616E6365AE
S1134A70203C2041525241595F53495A4528735FA3
S1134A806770696F426173657329000064726976A7
S1134A906572732F66736C5F6770696F2E630000B5
S1134AA0636F6E6669670000000000F8400000F85C
S1134AB0800000F8C00000F8000100F8696E73740B
S1134AC0616E6365203C2041525241595F53495AFB
S1134AD04528735F666770696F4261736573290067
S1134AE04750494F5F476574496E7374616E6365DF
S1134AF0000000004750494F5F50696E496E697469
S1134B0000000000464750494F5F476574496E7383
S1134B1074616E6365000000464750494F5F5069F9
S1134B206E496E69740000000000000000B0064089
S1134B3000C00640800D0E00000000000B00341081
S1134B400C003410696E7374616E6365203C2075CB
S1134B506172744172726179436F756E7400000002
S1134B60647269766572732F66736C5F75617274B3
S1134B702E63000068616E646C650000636F6E668E
S1134B8069670000636F6E6669672D3E62617564D4
S1134B90526174655F427073000000006261756465
S1134BA0526174655F427073000000006461746157
S1134BB00000000072696E674275666665720000E7
S1134BC07866657200000000786665722D3E646147
S1134BD0746153697A650000786665722D3E64617C
S1134BE074610000636F756E740000005541525487
S1134BF05F476574496E7374616E636500000000FD
S1134C00554152545F5472616E73666572476574A0
S1134C10527852696E674275666665724C656E6756
S1134C2074680000554152545F5472616E73666536
S1134C30724973527852696E674275666665724648
S1134C40756C6C00554152545F496E6974000000E4
S1134C50554152545F47657444656661756C74438D
S1134C606F6E666967000000554152545F53657466
S1134C7042617564526174650000000055415254EC
S1134C805F57726974654E6F6E426C6F636B696EC9
S1134C9067000000554152545F52656164426C6F75
S1134CA0636B696E67000000554152545F52656141
S1134CB0644E6F6E426C6F636B696E670000000038
S1134CC0554152545F5472616E73666572437265E6
S1134CD061746548616E646C65000000554152540E
S1134CE05F5472616E736665725374617274526953
S1134CF06E67427566666572000000005541525445
S1134D005F5472616E7366657253746F7052696E2C
S1134D106742756666657200554152545F5472610C
S1134D206E7366657253656E644E6F6E426C6F632C
S1134D306B696E6700000000554152545F54726104
S1134D406E7366657241626F727453656E640000BF
S1134D50554152545F5472616E736665724765744F
S1134D6053656E64436F756E740000005541525470
S1134D705F5472616E7366657252656365697665C8
S1134D804E6F6E426C6F636B696E6700554152548F
S1134D905F5472616E7366657241626F72745265BC
S1134DA06365697665000000554152545F54726131
S1134DB06E736665724765745265636569766543AB
S1134DC06F756E7400000000554152545F54726157
S1134DD06E7366657248616E646C65495251000079
S1134DE000A006400C0000000A003410696E7374C1
S1134DF0616E6365203C2041525241595F53495AC8
S1134E004528735F6C70736369426173657329002D
S1134E10647269766572732F66736C5F6C7073630A
S1134E20692E630068616E646C650000646174617E
S1134E3000000000636F6E6669670000636F6E6652
S1134E4069672D3E62617564526174655F42707377
S1134E500000000062617564526174655F427073A2
S1134E600000000072696E67427566666572000034
S1134E707866657200000000786665722D3E646194
S1134E80746153697A650000786665722D3E6461C9
S1134E9074610000636F756E740000004C505343DE
S1134EA0495F476574496E7374616E636500000001
S1134EB04C505343495F5472616E73666572476523
S1134EC074527852696E674275666665724C656E97
S1134ED0677468004C505343495F5472616E736643
S1134EE065724973527852696E6742756666657277
S1134EF046756C6C000000004C505343495F52658A
S1134F0061644E6F6E426C6F636B696E6700000084
S1134F104C505343495F57726974654E6F6E426CCF
S1134F206F636B696E6700004C505343495F496E71
S1134F30697400004C505343495F47657444656687
S1134F4061756C74436F6E66696700004C5053431F
S1134F50495F536574426175645261746500000071
S1134F604C505343495F5772697465426C6F636B6D
S1134F70696E67004C505343495F52656164426CEB
S1134F806F636B696E6700004C505343495F547202
S1134F90616E7366657243726561746548616E64BF
S1134FA06C6500004C505343495F5472616E7366E4
S1134FB06572537461727452696E67427566666590
S1134FC0720000004C505343495F5472616E736623
S1134FD0657253746F7052696E6742756666657266
S1134FE0000000004C505343495F5472616E736675
S1134FF0657253656E644E6F6E426C6F636B696E5F
S1135000670000004C505343495F5472616E7366ED
S1135010657241626F727453656E64004C50534301
S1135020495F5472616E7366657247657453656E49
S113503064436F756E7400004C505343495F54725F
S1135040616E73666572526563656976654E6F6EEF
S1135050426C6F636B696E67000000004C505343F1
S1135060495F5472616E7366657241626F72745205
S113507065636569766500004C505343495F54721B
S1135080616E7366657247657452656365697665BA
S1135090436F756E740000004C505343495F547263
S11350A0616E7366657248616E646C654952510045
S10750B0F8B5C04645
S10750B4F8B5C04641
S10750B800004001AF
S9030410E8
